S01600006E7372745F6C6F5F7377697463682E737265631C
S11300000C94CB000C94E8000C94E8000C94E800E9
S11300100C94E8000C94E8000C94E8000C94E800BC
S11300200C94E8000C94E8000C94E8000C94E800AC
S11300300C94E8000C94E8000C94E8000C94E8009C
S11300400C94E8000C94E8000C94E8000C94E8008C
S11300500C94E8000C94E8000C94E8000C94E8007C
S11300600C94E8000C94E8000C94E8000C94E8006C
S11300700C94E8000C94E8000C94E8000C94E8005C
S11300800C940C040C94E8000C94E8000C94E80024
S11300900C94E8006E616E00696E660000407A1090
S11300A0F35A00A0724E18090010A5D4E80000E825
S11300B07648170000E40B54020000CA9A3B000083
S11300C000E1F505000080969800000040420F0012
S11300D00000A08601000000102700000000E803D3
S11300E0000000006400000000000A00000000009E
S11300F00100000000002C76D888DC674F0823DF5D
S1130100C1DFAE59E1B1B796E5E3E453C63AE6512F
S1130110997696E8E6C28426EB898C9B62ED407C56
S11301206FFCEFBC9C9F40F2BAA56FA5F490055AF2
S11301302AF75C936B6CF9676DC11BFCE0E40D4717
S1130140FEF520E6B500D0ED902E0300943577053A
S11301500080841E080000204E0A000000C80C33F2
S11301603333330F986E12831141EF8D2114893B81
S1130170E65516CFFEE6DB18D1844B381BF77C1D01
S1130180901DA4BBE424203284725E228100C9F154
S113019024ECA1E53D2711241FBECFEFD0E1DEBF43
S11301A0CDBF11E0A0E0B1E0E4E7FAE102C00590C0
S11301B00D92A03AB107D9F723E0A0EAB1E001C05B
S11301C01D92A23FB207E1F70E94F0030C94380D90
S11301D00C94000081115DC01092C000611110C028
S11301E09A0140E050E060EB71E78BE090E00E9400
S11301F0330A215031093093C5002093C40033C021
S1130200613081F49A0140E050E060E673EE86E1EB
S113021090E00E94330A215031093093C5002093A5
S1130220C40021C0623081F49A0140E050E060E8EB
S11302307DE88BE590E00E94330A21503109309328
S1130240C5002093C4000FC09A0140E050E060EB69
S113025071E78BE090E00E94330A2150310930931A
S1130260C5002093C400E2ECF0E0808180838081AB
S1130270808380818083808186608083E1ECF0E0EC
S113028088E180838081806180838081806880832D
S11302900895813009F05CC01092C800611110C04B
S11302A09A0140E050E060EB71E78BE090E00E943F
S11302B0330A215031093093CD002093CC0033C050
S11302C0613081F49A0140E050E060E673EE86E12B
S11302D090E00E94330A215031093093CD002093DD
S11302E0CC0021C0623081F49A0140E050E060E823
S11302F07DE88BE590E00E94330A21503109309368
S1130300CD002093CC000FC09A0140E050E060EB98
S113031071E78BE090E00E94330A21503109309359
S1130320CD002093CC00EAECF0E0808180838081D2
S113033080838081808380818C608083E9ECF0E01D
S113034088E180838081806180838081806880836C
S11303500895E8ECF0E0908195FFFDCF8093CE0006
S11303600895CF93DF93EC018881882331F021969F
S11303700E94A90189918111FBCFDF91CF9108954A
S11303801F93CF93DF93CDB7DEB7C058D1090FB613
S1130390F894DEBF0FBECDBFAE014A575F4FFA01DE
S11303A061917191AF01CE0101960E94BE0C8981C9
S11303B0882369F010E00E94A9011F5FE1E0F0E0EA
S11303C0EC0FFD1FE10FF11D80818111F4CFC058A6
S11303D0DF4F0FB6F894DEBF0FBECDBFDF91CF91D4
S11303E01F910895CF92DF92EF92FF926B017C01EF
S11303F020E035E84FE457E40E9444068823B4F033
S113040020E035E84FEC57E4C701B6010E94980498
S1130410882364F480E490E09093A5018093A40180
S113042086E090E09093A1018093A00120E035E85C
S11304304FEC57E4C701B6010E9444068823B4F088
S113044020E035E84FE458E4C701B6010E9498045F
S1130450882364F480E290E09093A5018093A40142
S113046085E090E09093A1018093A00120E035E81D
S11304704FE458E4C701B6010E9444068823B4F04F
S113048020E035E84FEC58E4C701B6010E94980417
S1130490882364F480E190E09093A5018093A40103
S11304A084E090E09093A1018093A00120E035E8DE
S11304B04FEC58E4C701B6010E9444068823B4F007
S11304C020E035E84FE459E4C701B6010E949804DE
S11304D0882364F488E090E09093A5018093A401BC
S11304E083E090E09093A1018093A00120E035E89F
S11304F04FE459E4C701B6010E9444068823B4F0CE
S113050020E035E84FEC59E4C701B6010E94980495
S1130510882364F484E090E09093A5018093A4017F
S113052082E090E09093A1018093A00120E035E85F
S11305304FEC59E4C701B6010E9444068823B4F085
S113054020E035E84FE45AE4C701B6010E9498045C
S1130550882364F482E090E09093A5018093A40141
S113056081E090E09093A1018093A00120E035E820
S11305704FE45AE4C701B6010E9444068823A4F05C
S113058020E035E84FEC5AE4C701B6010E94980414
S1130590882354F481E090E09093A5018093A40112
S11305A01092A1011092A001FF90EF90DF90CF90E4
S11305B008958F929F92AF92BF92CF92DF92EF9263
S11305C0FF920F931F9320910C0130910D014091E4
S11305D00E0150910F0160911001709111010F2EC5
S11305E0F8EEAF2EF02D0F2EF3E0BF2EF02DC12C20
S11305F0D12CE12CF12C00E010E0809112019091BB
S113060013010E94B00A0E943E050E94F20184E197
S113061091E09F938F930E94C0018091A1018F93D9
S11306208091A0018F9381E391E09F938F930E9427
S1130630C00180E491E09F938F930E94C0013091A8
S1130640A5012091A401932F990F990BA0900C015F
S1130650B0900D01C0900E01D0900F01E0901001F8
S1130660F09011010091120110911301492F592F9B
S1130670692F792F892F0E94550A0E943E054B014C
S11306805C01209108013091090140910A015091C7
S11306900B010E949D040E940F056093E403709374
S11306A0E5038093E6039093E7039F938F937F93EF
S11306B06F9389E691E09F938F930E94C001C0904D
S11306C00801D0900901E0900A01F0900B016091BB
S11306D0E4037091E5038091E6039091E7030E949F
S11306E04405A70196010E9449069B01AC01C5017E
S11306F0B4010E942B04A70196010E949D044B01A2
S11307005C01209104013091050140910601509152
S113071007010E9449060E940F056093E803709345
S1130720E9038093EA039093EB039F938F937F9362
S11307306F9383E791E09F938F930E94C001C090D1
S11307400401D0900501E0900601F090070160914A
S1130750E8037091E9038091EA039091EB030E940E
S11307604405A70196010E949D049B01AC01C501AB
S1130770B4010E942B04A70196010E94490620910E
S113078000013091010140910201509103010E9446
S113079049060E940F056093EE037093EF03809364
S11307A0F0039093F1039F938F937F936F9380E86B
S11307B091E09F938F930E94C0018DB79EB74A9694
S11307C00FB6F8949EBF0FBE8DBF1F910F91FF907F
S11307D0EF90DF90CF90BF90AF909F908F9008954F
S11307E040E855E260E081E00E94EA008DE891E093
S11307F00E94B1010E94D90278948FE295E7019793
S1130800F1F700C000008091A2018133B1F7F894A0
S11308101092A2017894F1CF1F920F920FB60F920B
S113082011248F93EF93FF93E091A30181E08E0F46
S11308308093A3018091CE00F0E0EC51FE4F8083C1
S113084081E38093A201FF91EF918F910F900FBEEE
S11308500F901F9018955058BB27AA270E94430455
S11308600C940A060E94FC0538F00E94030620F04E
S113087039F49F3F19F426F40C94E9050EF4E0953D
S1130880E7FB0C94E305E92F0E941B0658F3BA1703
S1130890620773078407950720F079F4A6F50C9492
S11308A03D060EF4E0950B2EBA2FA02D0B01B901D5
S11308B090010C01CA01A0011124FF27591B99F0D2
S11308C0593F50F4503E68F11A16F040A22F232FDE
S11308D0342F4427585FF3CF469537952795A7952E
S11308E0F0405395C9F77EF41F16BA0B620B730BD5
S11308F0840BBAF09150A1F0FF0FBB1F661F771F46
S1130900881FC2F70EC0BA0F621F731F841F48F4FA
S1130910879577956795B795F7959E3F08F0B0CF83
S11309209395880F08F09927EE0F9795879508956A
S11309300E94BF0508F481E008950E94B1040C945C
S11309400A060E94030658F00E94FC0540F029F4B0
S11309505F3F29F00C94E30551110C943E060C946E
S1130960E9050E941B0668F39923B1F3552391F31B
S1130970951B550BBB27AA2762177307840738F00A
S11309809F5F5F4F220F331F441FAA1FA9F335D067
S11309900E2E3AF0E0E832D091505040E695001C1B
S11309A0CAF72BD0FE2F29D0660F771F881FBB1FD5
S11309B0261737074807AB07B0E809F0BB0B802DB3
S11309C0BF01FF2793585F4F3AF09E3F510578F0DF
S11309D00C94E3050C943E065F3FE4F3983ED4F395
S11309E0869577956795B795F7959F5FC9F7880FB3
S11309F0911D9695879597F90895E1E0660F771F05
S1130A00881FBB1F621773078407BA0720F0621B95
S1130A10730B840BBA0BEE1F88F7E09508950E94C0
S1130A20230688F09F5798F0B92F9927B751B0F053
S1130A30E1F0660F771F881F991F1AF0BA95C9F75E
S1130A4014C0B13091F00E943D06B1E008950C94B9
S1130A503D06672F782F8827B85F39F0B93FCCF36C
S1130A60869577956795B395D9F73EF490958095DB
S1130A70709561957F4F8F4F9F4F089597FB16F4A4
S1130A800E94EC050C948205E89409C097FB3EF49F
S1130A9090958095709561957F4F8F4F9F4F9923C7
S1130AA0A9F0F92F96E9BB279395F6958795779545
S1130AB06795B795F111F8CFFAF4BB0F11F460FF05
S1130AC01BC06F5F7F4F8F4F9F4F16C0882311F05D
S1130AD096E911C0772321F09EE8872F762F05C071
S1130AE0662371F096E8862F70E060E02AF09A950C
S1130AF0660F771F881FDAF7880F9695879597F901
S1130B000895E894F92F96EBFF2381F0121613064B
S1130B101406440B9395F6958795779567955795A5
S1130B204040FF23B9F71BC099270895882351F447
S1130B309850D2F7872B762F652F542F432F322FBF
S1130B4020E0B1F3121613061406440B88233AF07E
S1130B509A95440F551F661F771F881FCAF75523A0
S1130B604AF4440F551F11F460FF04C06F5F7F4FB8
S1130B708F4F9F4F880F9695879597F90895990FF2
S1130B800008550FAA0BE0E8FEEF16161706E80753
S1130B90F907C0F012161306E407F50798F0621B74
S1130BA0730B840B950B39F40A2661F0232B242B49
S1130BB0252B21F408950A2609F4A140A6958FEF68
S1130BC0811D811D089597F99F6780E870E060E0BA
S1130BD008959FEF80EC08959095809570956095A9
S1130BE050954095309521953F4F4F4F5F4F6F4F34
S1130BF07F4F8F4F9F4F089500240A9416161706AF
S1130C0018060906089500240A94121613061406F9
S1130C1005060895092E0394000C11F4882352F05C
S1130C20BB0F40F4BF2B11F460FF04C06F5F7F4F14
S1130C308F4F9F4F089557FD9058440F551F59F0FB
S1130C405F3F71F04795880F97FB991F61F09F3FB5
S1130C5079F087950895121613061406551FF2CFDE
S1130C604695F1DF08C0161617061806991FF1CF2E
S1130C7086957105610508940895E894BB27662755
S1130C807727CB0197F908950E94BF0508F48FEFE9
S1130C9008950E945C060C940A060E94FC0538F034
S1130CA00E94030620F0952311F00C94E3050C94A4
S1130CB0E90511240C943E060E941B0670F3959FCF
S1130CC0C1F3950F50E0551F629FF001729FBB273F
S1130CD0F00DB11D639FAA27F00DB11DAA1F649FDB
S1130CE06627B00DA11D661F829F2227B00DA11D8E
S1130CF0621F739FB00DA11D621F839FA00D611D14
S1130D00221F749F3327A00D611D231F849F600D34
S1130D10211D822F762F6A2F11249F5750409AF05D
S1130D20F1F088234AF0EE0FFF1FBB1F661F771FE9
S1130D30881F91505040A9F79E3F510580F00C94B4
S1130D40E3050C943E065F3FE4F3983ED4F38695A6
S1130D5077956795B795F795E7959F5FC1F7FE2B54
S1130D60880F911D9695879597F90895A0E1B0E0B5
S1130D70ECEBF6E00C944E0B7C011B016A01FC01C8
S1130D8017821682838181FF44C39E012F5F3F4FE8
S1130D903901F7019381F10193FD859193FF8191CD
S1130DA01F01882309F431C3853239F493FD8591F9
S1130DB093FF81911F01853239F4B70190E00E94BD
S1130DC0820C56016501E5CF10E0512C912CFFE116
S1130DD0F915D8F08B3279F038F4803279F0833217
S1130DE0A1F4F92DF0612EC08D3261F0803369F4E5
S1130DF0292D21602DC0392D3260932E892D8460D8
S1130E00982E2AC0E92DE86015C097FC2DC020ED6E
S1130E10280F2A3088F496FE06C03AE0139F200D6E
S1130E201124122F19C08AE0589E200D1124522E2D
S1130E30E92DE0629E2E10C08E3231F496FCE5C29C
S1130E40F92DF0649F2E08C08C3621F4292D2068DA
S1130E50922E02C0883641F4F10193FD859193FFEF
S1130E6081911F018111B3CF9BEB980F933020F434
S1130E70992D9061805E07C09BE9980F933008F02C
S1130E8066C1992D9F7E96FF16E09F73992E853635
S1130E9019F49064992E08C0863621F4392F3068ED
S1130EA0932E02C01111115097FE07C01C3350F449
S1130EB044244394410E27E00BC0183038F027E057
S1130EC017E005C027E09CE3492E02C0212F412CE6
S1130ED0560184E0A80EB11CF60160817181828103
S1130EE09381042DA3010E94940B6C01F981FC876A
S1130EF0F0FF02C0F3FF06C091FC06C092FE06C0DC
S1130F0000E205C00DE203C00BE201C000E08C85E5
S1130F108C7019F001115AC29BC297FE10C04C0C80
S1130F20FC85F4FF04C08A81813309F44A941414C3
S1130F3074F528E0241578F588E0482E2CC096FC3A
S1130F402AC0812F90E08C159D059CF03CEFC316C0
S1130F503FEFD30674F0892D8068982E0AC0E2E032
S1130F60F0E0EC0FFD1FE10FF11D8081803319F4D7
S1130F7011501111F4CF97FE0EC044244394410E36
S1130F80812F90E0C816D9062CF41C1904C04424FF
S1130F90439401C010E097FE06C01C141D0434F4F1
S1130FA0C601019605C085E090E002C081E090E0B2
S1130FB001110196112331F0212F30E02F5F3F4FB3
S1130FC0820F931F252D30E08217930714F4581ACB
S1130FD001C0512C892D897049F4552039F0B7018D
S1130FE080E290E00E94820C5A94F7CF002329F00B
S1130FF0B701802F90E00E94820C93FC09C0552019
S113100039F0B70180E390E00E94820C5A94F7CF44
S113101097FE4CC04601D7FE02C0812C912CC6011C
S113102088199909F301E80FF91FFE87ED879601E6
S113103024193109388B2F87012F10E01195019560
S113104011093FEF8316930629F4B7018EE290E06D
S11310500E94820CC814D9044CF08F859889881595
S1131060990524F4ED85FE85818101C080E3F1E0DA
S11310708F1A91082D853E852F5F3F4F3E872D8720
S1131080801691062CF0B70190E00E94820CD9CF13
S1131090C814D90441F49A81963320F4953319F491
S11310A03C8534FF81E3B70190E04EC08A818133EF
S11310B019F09C859F7E9C87B70190E00E94820C6A
S11310C0111105C094FC18C085E690E017C0B70163
S11310D08EE290E00E94820C1E5F82E001E0080F25
S11310E0F301E80FF11D8081B70190E00E94820CAA
S11310F0802F0113F3CFE6CF85E490E0B7010E947F
S1131100820CD7FC06C0C114D10441F4EC85E4FF81
S113111005C0D194C194D1088DE201C08BE2B7011E
S113112090E00E94820C80E32AE0C216D1042CF0E5
S11311308F5FFAE0CF1AD108F7CFB70190E00E9491
S1131140820CB701C601C0960E94820C54C183363A
S113115031F0833779F0833509F056C020C0560149
S113116032E0A30EB11CF6018081898301E010E016
S1131170630112C05601F2E0AF0EB11CF601C0804B
S1131180D18096FE03C0612F70E002C06FEF7FEF45
S1131190C6010E94770C8C01F92DFF7714C056010B
S11311A022E0A20EB11CF601C080D18096FE03C0DD
S11311B0612F70E002C06FEF7FEFC6010E946C0CDC
S11311C08C01F92DF0689F2EF3FD1AC0852D90E057
S11311D008171907A8F4B70180E290E00E94820C76
S11311E05A94F4CFF60197FC859197FE81916F0193
S11311F0B70190E00E94820C51105A9401501109D9
S11312000115110579F7F7C0843611F0893661F5B7
S1131210560197FE09C024E0A20EB11CF6016081BC
S11312207181828193810AC0F2E0AF0EB11CF60194
S113123060817181072E000C880B990BF92DFF76C4
S11312409F2E97FF09C090958095709561957F4F6B
S11312508F4F9F4FF0689F2E2AE030E0A3010E9439
S1131260DA0CC82EC6183FC0092D853721F40F7E2D
S11312702AE030E01DC0097F8F3691F018F48835DC
S113128059F0C3C0803719F0883711F0BEC000612F
S113129004FF09C0046007C094FE08C0066006C0CD
S11312A028E030E005C020E130E002C020E132E077
S11312B0560107FF09C084E0A80EB11CF601608145
S11312C071818281938108C0F2E0AF0EB11CF601F6
S11312D06081718180E090E0A3010E94DA0CC82E45
S11312E0C6180F77902E96FE0BC0092D0E7FC116DF
S11312F050F494FE0AC092FC08C0092D0E7E05C06D
S1131300DC2C092D03C0DC2C01C0D12E04FF0DC040
S1131310FE01EC0DF11D8081803311F4097E09C0BA
S113132002FF06C0D394D39404C0802F867809F0BA
S1131330D39403FD11C000FF06C01C2DD51480F406
S1131340150D1D190DC0D51458F4B70180E290E0B5
S11313500E94820CD394F7CFD51410F45D1801C009
S1131360512C04FF10C0B70180E390E00E94820C6E
S113137002FF17C001FD03C088E790E002C088E5C2
S113138090E0B7010CC0802F867859F001FF02C0AD
S11313908BE201C080E207FD8DE2B70190E00E947C
S11313A0820CC11638F4B70180E390E00E94820CED
S11313B01150F7CFCA94F301EC0DF11D8081B701F0
S11313C090E00E94820CC110F5CF15C0F4E0F51531
S11313D060F584E0581A93FE1FC0011127C02C85C4
S11313E023FF2AC004E910E0392D3071932EF8014F
S11313F08491811124C0552009F4E4CCB70180E222
S113140090E00E94820C5A94F6CFF701868197816E
S113141026C08FEF9FEF23C0B70180E290E00E94C7
S1131420820C5A945110F8CFD8CF512CB701802F89
S113143090E00E94820CD3CF08E910E0D5CF911040
S11314408052B70190E00E94820C0F5F1F4FCFCFF4
S113145023E0251510F483E0BDCF512CC0CF609656
S1131460E2E10C946A0BA1E21A2EAA1BBB1BFD013C
S11314700DC0AA1FBB1FEE1FFF1FA217B307E4076F
S1131480F50720F0A21BB30BE40BF50B661F771FC7
S1131490881F991F1A9469F76095709580959095A7
S11314A09B01AC01BD01CF010895DF93CF931F933E
S11314B00F939A9DF02D219FF00D8B9DF00D8A9D29
S11314C0E02DF10D039FF00D029FE00DF11D4E9DE7
S11314D0E00DF11D5E9DF00D4F9DF00D7F936F9318
S11314E0BF92AF925F934F93D5010E94850B8B01FE
S11314F0AC01D7010E94850BEB01E80FF91FD6015F
S11315000E94A50A2F913F91D6010E94850BC60F18
S1131510D71FE81FF91FAF91BF910E94A50A2F9111
S11315203F910E94850BC60FD71FE81FF91FD601F4
S11315300E94850BE60FF71F9801BE01CF0111240D
S11315400F911F91CF91DF9108950E94850B460F53
S1131550571FC81FD91F08F431960895689401C015
S1131560E894F92FF12B12F00C94E20AA0E0B0E019
S1131570ECEBFAE00C94540B092E059422F40E942F
S11315803E0B112392F4F0E80F26FFEFE094F09461
S113159000951095B094C094D094A194BF0ACF0A3A
S11315A0DF0AEF0AFF0A0F0B1F0B0E94ED0A07FC6C
S11315B00E943E0BCDB7DEB7ECE00C94700B689440
S11315C001C0E8948F929F92CF93DF930E94ED0A1B
S11315D0DF91CF919F908F90089588249924F401EE
S11315E0E401B0E49F93AA279A158B049C04ED05AB
S11315F0FE05CF05D007A10798F4AD2FDC2FCF2F20
S1131600FE2FE92D982C892E982F872F762F652F62
S1131610542F432F322F2227B85031F7BF9127C0C0
S11316201B2EBF91BB27220F331F441F551F661F5C
S1131630771F881F991F881C991CEE1FFF1FCC1F42
S1131640DD1FAA1FBB1F8A149B04EC05FD05CE05F4
S1131650DF05A007B10748F08A189B08EC09FD09CB
S1131660CE09DF09A00BB10B21601A94E1F62EF428
S11316709401AF01BE01CD01000C089560957095F1
S11316808095909530954095509521953F4F4F4FBB
S11316905F4F6F4F7F4F8F4F9F4F08952F923F9211
S11316A04F925F926F927F928F929F92AF92BF926E
S11316B0CF92DF92EF92FF920F931F93CF93DF931A
S11316C0CDB7DEB7CA1BDB0B0FB6F894DEBF0FBE77
S11316D0CDBF09942A88398848885F846E847D84C4
S11316E08C849B84AA84B984C884DF80EE80FD80C6
S11316F00C811B81AA81B981CE0FD11D0FB6F8943C
S1131700DEBF0FBECDBFED010895A29FB001B39F10
S1131710C001A39F700D811D1124911DB29F700DF6
S1131720811D1124911D0895283008F027E03327E6
S1131730DA01990F311D87FD9160009661057105ED
S113174039F432602E5F3D9330E32A95E1F7089532
S11317509F3F30F080387105610509F03C5F3C5FC4
S11317603D93913008F08068911DDF93CF931F93D0
S11317700F93FF92EF92192F987F9695E92F9695E4
S11317809695E90FFF27EA50FF4F99273327EE2458
S1131790FF24A701E70105900894079428F4360F65
S11317A0E71EF81E491F511D660F771F881F991FDA
S11317B00694A1F70590079428F4E70EF81E491F34
S11317C0561FC11D770F881F991F661F0694A1F726
S11317D00590079428F4F80E491F561FC71FD11D02
S11317E0880F991F661F771F0694A1F70590079429
S11317F020F4490F561FC71FD81F990F661F771F64
S1131800881F0694A9F784911095177041F0D69516
S1131810C79557954795F794E7941A95C1F7ECE95E
S1131820F0E0689415901591359165919591059026
S11318307FE27395E118F10A430B560BC90BD009EB
S1131840C0F7E10CF11E431F561FC91FD01D7EF4C3
S1131850703311F48A95E6CFE894015030F0080F04
S11318600AF40027021708F4202F2395022F7A3355
S113187028F079E37D932A95E9F710C07D932A95A2
S113188089F6069497956795379517951794E118F7
S1131890F10A430B560BC90BD00998F023957E919E
S11318A073957A3308F070E37C932013B8F77E9134
S11318B070617D9330F0839571E37D9370E32A9595
S11318C0E1F71124EF90FF900F911F91CF91DF91D9
S11318D0992787FD90950895FC010590615070400B
S11318E00110D8F7809590958E0F9F1F0895FC01E5
S11318F06150704001900110D8F7809590958E0F3B
S11319009F1F08950F931F93CF93DF93FB012381B0
S113191021FD03C08FEF9FEF2CC022FF16C046812C
S11319205781248135814217530744F4A081B18142
S11319309D012F5F3F4F318320838C932681378114
S11319402F5F3F4F3783268314C08B01EC01FB01CB
S11319500084F185E02D0995892BE1F6D8011696CE
S11319608D919C911797019617969C938E93169739
S1131970CE01DF91CF911F910F910895AEE0B0E0B9
S1131980E4ECFCE00C945C0B8C0186E08C831A8301
S113199009838FEF9FE79E838D83CE0101960E947A
S11319A0B606EF81F885E00FF11F10822E96E4E071
S11319B00C94780BFA01AA27283051F1203181F1D7
S11319C0E8946F936E7F6E5F7F4F8F4F9F4FAF4F43
S11319D0B1E03ED0B4E03CD0670F781F891F9A1F56
S11319E0A11D680F791F8A1F911DA11D6A0F711D0A
S11319F0811D911DA11D20D009F468943F912AE016
S1131A00269F11243019305D3193DEF6CF010895FD
S1131A10462F4770405D4193B3E00FD0C9F7F6CF2E
S1131A20462F4F70405D4A3318F0495D31FD4052F6
S1131A30419302D0A9F7EACFB4E0A695979587958C
S1131A4077956795BA95C9F700976105710508956B
S1131A509B01AC010A2E0694579547953795279517
S1131A60BA95C9F7620F731F841F951FA01D0895AF
S1071A70F894FFCF14
S1131A7400FC7F460000804B8096184B40C55B8F6A
S1131A840100000066726571656E63657320736599
S1131A946C656374207375636365737320210D0A25
S1131AA40052465F53656C6563743D25580D0A0006
S1131AB43D3D3D3D3D3D3D3D3D3D3D63616C6320CC
S1131AC452466F75743D3D3D3D3D3D3D3D3D3D3D7F
S1131AD43D3D3D3D3D3D0D0A00494E54523D256476
S1131AE40D0A004652414331523D256C640D0A00EF
S1131AF44652414332523D256C640D0A00536572CB
S1131B0469616C3120696E6974204F4B210A0000AD
S9030000FC
